{"result":{"txid":"479b18a6c1210c3742152b75a8c2f5fa7043e88ecfa63882fb19fa0ac89d51c7","hash":"d81964c3aa894da551761839d00d7019b5be71ef8adc92b0aafe4686643d22f2","version":2,"size":387,"vsize":305,"weight":1218,"locktime":0,"vin":[{"txid":"a620bd6b6032c2cfdcb10c84b1c454cc1cf7a51358631408ae23d89923340f86","vout":1,"scriptSig":{"asm":"","hex":""},"txinwitness":["30450221008b03d27ace4e7e1c65665226a9101e2c19b7568e209cedbd5693e90f33d4299b0220267b1873130c36717e6ddb3ddfb902abdede3154c171c97a0593aad1425468d201","026e5628506ecd33242e5ceb5fdafe4d3066b5c0f159b3c05a621ef65f177ea286"],"sequence":4294967293}],"vout":[{"value":0.00610000,"n":0,"scriptPubKey":{"asm":"OP_HASH160 f09a22b7cd5fa2606f1824e8fe4b20eee17fa6c7 OP_EQUAL","desc":"addr(3PdCk7Y1Daz75QaHP4V652gybvXQpKdVUT)#ya4sye8f","hex":"a914f09a22b7cd5fa2606f1824e8fe4b20eee17fa6c787","address":"3PdCk7Y1Daz75QaHP4V652gybvXQpKdVUT","type":"scripthash"}},{"value":0.16652790,"n":1,"scriptPubKey":{"asm":"0 53a4614f99f0183b60826c5e6ac16a48985b1cf9","desc":"addr(bc1q2wjxznue7qvrkcyzd30x4st2fzv9k88exrc335)#lejzjy0c","hex":"001453a4614f99f0183b60826c5e6ac16a48985b1cf9","address":"bc1q2wjxznue7qvrkcyzd30x4st2fzv9k88exrc335","type":"witness_v0_keyhash"}},{"value":0.00060000,"n":2,"scriptPubKey":{"asm":"OP_HASH160 6e1eb82d6d5aee361b805e8f5de98d6ff6c77331 OP_EQUAL","desc":"addr(3BjH44ypGpDz3QJQa47oeeiMXWRo2uVrVn)#m9q32v06","hex":"a9146e1eb82d6d5aee361b805e8f5de98d6ff6c7733187","address":"3BjH44ypGpDz3QJQa47oeeiMXWRo2uVrVn","type":"scripthash"}},{"value":0.00140000,"n":3,"scriptPubKey":{"asm":"OP_DUP OP_HASH160 ac8e420ff9b2bab1468a75c6cc273a271ec634ec OP_EQUALVERIFY OP_CHECKSIG","desc":"addr(1GjPeFxTQeoSB4AjMKN6KMLq5caiAgRF1m)#h6uvl4d9","hex":"76a914ac8e420ff9b2bab1468a75c6cc273a271ec634ec88ac","address":"1GjPeFxTQeoSB4AjMKN6KMLq5caiAgRF1m","type":"pubkeyhash"}},{"value":0.00940000,"n":4,"scriptPubKey":{"asm":"OP_DUP OP_HASH160 5bb946f98dcd0da66b1c1977c87a6c401bba272b OP_EQUALVERIFY OP_CHECKSIG","desc":"addr(19MzSkE4XVeGYN31k31GM9xLdHDZRsRjn2)#n4l7gjgp","hex":"76a9145bb946f98dcd0da66b1c1977c87a6c401bba272b88ac","address":"19MzSkE4XVeGYN31k31GM9xLdHDZRsRjn2","type":"pubkeyhash"}},{"value":0.00348480,"n":5,"scriptPubKey":{"asm":"OP_HASH160 080647f544faa2c2afbcccb6ed8a0df1a5fad0f9 OP_EQUAL","desc":"addr(32RSrViXwgEvrnEHHZppasFh3uwtH4zkqB)#0nrjvgra","hex":"a914080647f544faa2c2afbcccb6ed8a0df1a5fad0f987","address":"32RSrViXwgEvrnEHHZppasFh3uwtH4zkqB","type":"scripthash"}},{"value":10.36452945,"n":6,"scriptPubKey":{"asm":"0 f60834ef165253c571b11ce9fa74e46692fc5ec1","desc":"addr(bc1q7cyrfmck2ffu2ud3rn5l5a8yv6f0chkp0zpemf)#kcdfju3j","hex":"0014f60834ef165253c571b11ce9fa74e46692fc5ec1","address":"bc1q7cyrfmck2ffu2ud3rn5l5a8yv6f0chkp0zpemf","type":"witness_v0_keyhash"}}],"hex":"02000000000101860f342399d823ae0814635813a5f71ccc54c4b1840cb1dccfc232606bbd20a60100000000fdffffff07d04e09000000000017a914f09a22b7cd5fa2606f1824e8fe4b20eee17fa6c787f619fe000000000016001453a4614f99f0183b60826c5e6ac16a48985b1cf960ea00000000000017a9146e1eb82d6d5aee361b805e8f5de98d6ff6c7733187e0220200000000001976a914ac8e420ff9b2bab1468a75c6cc273a271ec634ec88ace0570e00000000001976a9145bb946f98dcd0da66b1c1977c87a6c401bba272b88ac405105000000000017a914080647f544faa2c2afbcccb6ed8a0df1a5fad0f9875104c73d00000000160014f60834ef165253c571b11ce9fa74e46692fc5ec1024830450221008b03d27ace4e7e1c65665226a9101e2c19b7568e209cedbd5693e90f33d4299b0220267b1873130c36717e6ddb3ddfb902abdede3154c171c97a0593aad1425468d20121026e5628506ecd33242e5ceb5fdafe4d3066b5c0f159b3c05a621ef65f177ea28600000000","blockhash":"00000000000000000000927b9e36be6d4a16f2f349a43e33838877b295cd328f","confirmations":1,"time":1681686774,"blocktime":1681686774},"error":null,"id":"nodeyez"}
